:020000040800F2
:1000000000500020713200086507000867070008EB
:10001000690700086B0700086D0700080000000072
:100020000000000000000000000000006F07000852
:10003000710700080000000073070008750700083A
:10004000B9320008B9320008B9320008B9320008E4
:10005000B9320008B9320008B9320008B9320008D4
:10006000B9320008B9320008B9320008B9320008C4
:10007000B9320008B9320008B9320008B9320008B4
:10008000B9320008B9320008B9320008B9320008A4
:100090007D070008B9320008B9320008B9320008FB
:1000A000B9320008B9320008B9320008B932000884
:1000B000B9320008B9320008B9320008B932000874
:1000C000B9320008B9320008B9320008B932000864
:1000D000B9320008B9320008B9320008B932000854
:1000E000B9320008B9320008B93200080000000037
:1000F0000000000000000000000000000000000000
:0C01000000000000000000005FF808F1A3
:10010C00034613F8012B002AFBD1181A013870474B
:10011C000348044B834202D0034B03B1184770478A
:10012C007C0100207C0100200000000005480649ED
:10013C00091A891001EBD171491002D0034B03B19C
:10014C00184770477C0100207C0100200000000053
:10015C0010B5064C237843B9FFF7DAFF044B13B103
:10016C000448AFF300800123237010BD7C010020F4
:10017C00000000002C33000808B5054B1BB10549E5
:10018C000548AFF30080BDE80840FFF7CFBF00BFC4
:10019C0000000000800100202C3300082DE9F04302
:1001AC0089B0002404940594069407942F4B9A6903
:1001BC0042F010029A619A6902F010020092009AC1
:1001CC009A6942F020029A619A6902F02002019227
:1001DC00019A9A6942F004029A619A6902F0040247
:1001EC000292029A9A6942F008029A619B6903F0A2
:1001FC0008030393039BDFF87C9022464FF40051D5
:10020C00484602F015F9DFF8708022464FF406419B
:10021C00404602F00DF9164F22464FF47E713846D7
:10022C0002F006F94FF40053049301260596069448
:10023C000225079504A9484602F00EF84FF4064330
:10024C00049305960694079504A9404602F004F819
:10025C004FF47E73049305960694079504A93846CB
:10026C0001F0FAFF09B0BDE8F08300BF00100240B6
:10027C00000C0140001001400008014070B594B022
:10028C0000240C940D940F941094059406940794E8
:10029C0008940994019402940394049401250A95FA
:1002AC004FF480330B930E950226119612934FF454
:1002BC00801313930AA801F04FFC0F2305930696A5
:1002CC0007944FF4806308930994294605A801F01C
:1002DC0083FE102301934FF48003049301A801F0D3
:1002EC0031FF14B070BD000000B587B001F0E6FB23
:1002FC00FFF7C4FFFFF752FF00F018F8094B6C46EC
:10030C000FCB07C424F8023B1B0C23706846FFF785
:10031C00F7FE81B2684600F009FA4FF4FA7001F06A
:10032C00F1FBF3E7583300087047000008B50022D2
:10033C000F49104802F012F970B90F490D4802F03C
:10034C0024F960B90D490B4802F045FF50B9094832
:10035C0002F022F948B908BDFFF7E6FFEDE7FFF719
:10036C00E3FFEFE7FFF7E0FFF1E7FFF7DDFFF2E771
:10037C0000000020D40300206C000020500000205E
:10038C00022807D8DFE800F00206040000207047BE
:10039C00012070470220704702680E4B9A4200D031
:1003AC00704700B583B003F5DA33DA6942F4000222
:1003BC00DA61DB6903F400030193019B002211460F
:1003CC00142002F04DF8142002F07EF803B05DF812
:1003DC0004FB00BF005C004008B500F50C71D0F8C0
:1003EC00680202F0F2F808BD08B500EB4113D3F82F
:1003FC003C21D0F8680202F016F908BD08B500EBF4
:10040C004113DA6BD0F8680202F057F908BD08B551
:10041C00D0F8680202F0FAF908BD10B504468368FA
:10042C00022B09D10121D4F8680202F0D8F9D4F8D2
:10043C00680202F0ACF910BDFFF776FFF2E700009E
:10044C0010B50446D0F8680202F0CCF9A36923B1C8
:10045C00024A136943F00603136110BD00ED00E07E
:10046C0008B5D0F8680202F0C6F908BD10B504460C
:10047C001D48C0F86842C4F8C0021C4B0360082336
:10048C0043600223836000238361C361036200F035
:10049C0099F930BB182300221146D4F8C00200F0A1
:1004AC00BFFD582300228021D4F8C00200F0B8FD13
:1004BC00C02300228121D4F8C00200F0B1FD4FF41A
:1004CC00887300220121D4F8C00200F0A9FD4FF47A
:1004DC00807300228221D4F8C00200F0A1FD00201C
:1004EC0010BDFFF721FFD5E798060020005C004007
:1004FC0008B5D0F8C00200F0DFF9FFF741FF08BDE6
:10050C0010B51C4613462246D0F8C00200F0FFF985
:10051C00FFF736FF10BD08B5D0F8C00200F02FFA77
:10052C00FFF72EFF08BD08B5D0F8C00200F00AFD99
:10053C00FFF726FF08BD08B5D0F8C00200F039FD62
:10054C00FFF71EFF08BDD0F8C03211F0800F06D1A6
:10055C0001F07F0103EB411191F82A01704701F082
:10056C007F0103EB411191F82A00704708B5D0F8D0
:10057C00C00200F0B8F9FFF703FF08BD08B5D0F8CA
:10058C00C00200F050FAFFF7FBFE08BD08B5D0F82A
:10059C00C00200F022FAFFF7F3FE08BD08B5D0F850
:1005AC00C00200F039FA08BD0048704798010020DD
:1005BC007047704712230B80004870471C000020C6
:1005CC0004230B8000487047300000200023934226
:1005DC0016D230B40BE0373401F8134000015C0044
:1005EC00013400250D550133DBB2934206D2040FC2
:1005FC00092CF0D8303401F81340EFE730BC7047C9
:10060C007047000038B50A4B186804331C68043373
:10061C001B68C01800D138BD064D0822A91CFFF775
:10062C00D5FF042205F112012046FFF7CFFFF2E7B8
:10063C00E8F7FF1F3400002008B51A230B80FFF7E2
:10064C00E1FF014808BD00BF3400002008B50A4690
:10065C0028B90549054802F015FC034808BD0249B4
:10066C00024802F00FFCF8E7040900209833000858
:10067C0010B5044C0A462146034802F003FC204600
:10068C0010BD00BF040900208433000808B50A46D9
:10069C0028B90549054802F0F5FB034808BD024995
:1006AC00024802F0EFFBF8E7040900206833000869
:1006BC0008B50A4628B90549054802F0E3FB03488A
:1006CC0008BD0249024802F0DDFBF8E704090020EE
:1006DC0074330008002070470020704738B50C4672
:1006EC00064D0A680146284602F006FE23680024DF
:1006FC00EC54034802F09EFD204638BDBC0300209C
:10070C00D403002010B5064C00220649204602F006
:10071C0069FD0549204602F06DFD002010BD00BFAB
:10072C00D4030020EC0E0020040B0020094BD3F85E
:10073C00B832D3F814320BB10120704710B50A4609
:10074C000146044C204602F04DFD204602F058FDB7
:10075C0010BD00BFD40300207047FEE7FEE7FEE7A4
:10076C00FEE770477047704708B501F0B9F908BD4E
:10077C0008B5024800F02DFB08BD00BF980600200C
:10078C0082B00E4B9A6942F001029A619A6902F0AA
:10079C0001020092009ADA6942F08052DA61DB6958
:1007AC0003F080530193019B054A536823F0E063E7
:1007BC0043F00073536002B0704700BF001002405A
:1007CC0000000140F0B587B0002873D0044690F8C3
:1007DC002932D3B1032384F82932206800F047FC76
:1007EC00254655F8107B6E460FCD0FC62B6833602F
:1007FC00231D0ECB384600F02BFC58B1022384F895
:10080C0029320125284607B0F0BD80F82832FFF7C1
:10081C00C3FDDFE70021206800F033FC0023606893
:10082C00834212D204EB4312012182F8291082F880
:10083C002830D386002182F82B109163D1639A1C47
:10084C005201A1500133DBB2E9E70023984213D9DE
:10085C0004EB4311002281F8292181F8283181F819
:10086C002B21C1F83821C1F83C2103F10A014901BF
:10087C0062500133DBB2E9E7254655F8107B6E4632
:10088C000FCD0FC62B683360231D0ECB384600F0FE
:10089C00FAFB054620B1022384F829320125B1E781
:1008AC00002384F82430012384F82932206800F0D6
:1008BC001CFFA7E70125A5E790F82832012B10D0E3
:1008CC0010B50446012180F82812FFF772FE20684B
:1008DC0000F009FF206800F0C2FB002084F8280219
:1008EC0010BD0220704790F82832012B0DD010B5A6
:1008FC000446012380F8283280F82410006800F0A8
:10090C00ECFE002084F8280210BD0220704770B560
:10091C0011F0800F23D101F007056D0105F59474DA
:10092C0004440544002685F8296101F00701217073
:10093C002261E370627802B1E181022B1AD090F847
:10094C002832012B19D00546012380F82832214684
:10095C00006800F0AEFB002085F8280270BD01F0A5
:10096C0007056D0105F1280404440544012685F8AA
:10097C002960DAE700232371E1E70220EEE710B5E6
:10098C0011F0800F1CD101F007035B0103F5947289
:10099C0002440344002483F8294101F00703137037
:1009AC0090F82832012B16D00446012380F8283207
:1009BC001146006800F031FD002084F8280210BDBB
:1009CC0001F007035B0103F12802024403440124F4
:1009DC0083F82940E1E70220F1E770B501F0070543
:1009EC006C0104F5947101440444C4F83C2105F1F4
:1009FC000A025201861883500023736084F829314F
:100A0C0084F8285125B9006800F08BFE002070BDD9
:100A1C00006800F086FEF9E701F007010A3100EBEF
:100A2C0041114868704770B501F007056C0104F17D
:100A3C00280101440444E263AA1C52018618835025
:100A4C0000237360012384F8293084F8285025B9D9
:100A5C00006800F066FE002070BD006800F061FECA
:100A6C00F9E7F8B50446A8E003889BB223F4E14308
:100A7C0023F070036FEA43436FEA53439BB2038046
:100A8C002268B2F8503094F8281003EBC1030233FB
:100A9C0002EB4303B3F80034C3F309036364E26B62
:100AAC001344E36300212046FFF7A8FC94F824309C
:100ABC00002B00F08280236C002B7ED194F8243024
:100ACC00226843F08003A2F84C30002384F82430D1
:100ADC0073E0B0F8503094F8282103EBC2030633CE
:100AEC0000EB4303B3F80034C3F30903C4F84431F7
:100AFC00B4F82E2104F50C7100F0A3FF22681388C2
:100B0C0023F070031B051B0D43F08003138020465C
:100B1C00FFF762FC51E03E2A09D8510812F0010F90
:100B2C0000D00131890289B2A3F80C14A1E051095B
:100B3C0012F01F0F00D101396FEAC1626FEA524205
:100B4C0092B2A3F80C2494E030F82560B6B216F4F7
:100B5C00004F40F09D8016F0800F2ED0226832F8A6
:100B6C0025309BB223F4E14323F070036FEA434337
:100B7C006FEA53439BB222F825302268B2F850300A
:100B8C0004EB451090F8281003EBC103023302EB81
:100B9C004303B3F80024C2F30902AB1C5B01E11858
:100BAC004A60C16B0A44C263E358002B40F00781D2
:100BBC0090F828102046FFF721FC2068B0F844304C
:100BCC0013F4004F00F00381B0F844309BB213F0E3
:100BDC000F05B9D113F0100F3FF446AF03889BB249
:100BEC0013F4006F7FF475AF13F4004FE5D0038856
:100BFC0023F070031B051B0D43F08003038020685A
:100C0C00B0F8503094F8282103EBC203063300EB04
:100C1C004303B3F80034C3F30903C4F844318BB174
:100C2C00D4F83C1171B1B4F82E2100F00AFFD4F8BD
:100C3C004421D4F83C311344C4F83C310021204603
:100C4C00FFF7D2FB2368B3F850201344D4F83821B3
:100C5C00002A7FF460AFB3F80C2492B222F4F8426D
:100C6C0092B2A3F80C24B3F80C2442F40042A3F87B
:100C7C000C24226813889BB223F4804323F0700366
:100C8C0083F4405343F4004343F08003138094E710
:100C9C0030F8253023F070031B051B0D43F0800347
:100CAC0020F8253004EB451393F83431D3B9206880
:100CBC00B0F8503004EB451292F8282103EBC20334
:100CCC00063300EB4303B3F80074C7F309078FB383
:100CDC0004EB45113B46B1F82E21D1F83C1100F044
:100CEC00B0FE27E0206804EB451393F8282130F878
:100CFC00223013F4804F43D0B0F8503003EBC203D2
:100D0C00023300EB4303B3F80074C7F309076FBB5E
:100D1C00226804EB451393F8281132F821309BB26A
:100D2C0023F4E04323F0700343F4004343F0C00387
:100D3C0022F8213005F10A035B01E1184A683A44B4
:100D4C004A6004EB4511D1F83C213A44C1F83C21EE
:100D5C00E3581BB1D1F838118F4228D204EB45135C
:100D6C0093F828112046FFF73FFBF4E604EB4511FE
:100D7C003B46B1F83021D1F83C1100F062FEC7E7D8
:100D8C00B0F8503003EBC203063300EB4303B3F867
:100D9C000074C7F30907002FBAD004EB45113B468A
:100DAC00B1F83221D1F83C1100F04BFEB0E704EB66
:100DBC00451191F828112046FFF70FFECBE604EB06
:100DCC00451595F828102046FFF72DFEF5E6002076
:100DDC00F8BD10B50446006800F089FC10F4004F13
:100DEC0045D1206800F083FC10F4806F43D120685B
:100DFC0000F07DFC10F4804F08D02268B2F844302B
:100E0C009BB223F480439BB2A2F84430206800F0DC
:100E1C006EFC10F4005F08D02268B2F844309BB22C
:100E2C0023F400539BB2A2F84430206800F05FFC1E
:100E3C0010F4805F30D1206800F059FC10F4006F82
:100E4C0049D1206800F053FC10F4007F6DD120686C
:100E5C0000F04DFC10F4807F08D02268B2F84430CA
:100E6C009BB223F480739BB2A2F8443010BD204691
:100E7C00FFF7F7FDB5E72268B2F844309BB223F4D4
:100E8C0080639BB2A2F844302046FFF7C6FA0021DB
:100E9C002046FFF728FDAAE72268B2F840309BB243
:100EAC0023F004039BB2A2F840302268B2F8403021
:100EBC009BB223F008039BB2A2F840302046FFF708
:100ECC00CFFA2268B2F844309BB223F480539BB221
:100EDC00A2F84430AFE72268B2F8403043F0080380
:100EEC00A2F840302268B2F844309BB223F400637D
:100EFC009BB2A2F844302268B2F8403043F00403AD
:100F0C00A2F84030206800F0F2FB10F4805F08D0AB
:100F1C002268B2F844309BB223F480539BB2A2F8FF
:100F2C0044302046FFF78CFA8BE72268B2F8443045
:100F3C009BB223F400739BB2A2F844302046FFF717
:100F4C0066FA84E738B501F0070543689D422CD852
:100F5C0011F0800F1AD14B0103F594710144034435
:100F6C00002283F8292101238B700D7090F8283210
:100F7C00012B1CD00446012380F82832006800F0B5
:100F8C0036FB65B1002084F8280238BD6B0103F1F3
:100F9C00280101440344012283F82920E3E704F5E6
:100FAC000C71206800F0A6FBECE70120EDE70220B5
:100FBC00EBE701F00F0243689A422DD810B511F0FF
:100FCC00800F1ED101F007035B0103F594720244FC
:100FDC000344002483F829410023937001F0070394
:100FEC00137090F82832012B18D00446012380F896
:100FFC0028321146006800F01FFB002084F82802FC
:10100C0010BD01F007035B0103F128020244034405
:10101C00012483F82940DFE7012070470220EFE725
:10102C0011F0800F09D001F007014901283101446A
:10103C0042B90A73CB8000207047490101F59471C5
:10104C000144F5E701220A730B811B0C4B81F2E77B
:10105C0084B001A880E80E00002004B07047B0F8FE
:10106C00403043F43F43A0F8403000207047B0F8C4
:10107C00403023F47C535B045B0CA0F84030002020
:10108C0070470020704784B038B505AC84E80E007A
:10109C000123A0F840300024A0F84040A0F84440C0
:1010AC00A0F85040FFF7DBFF2046BDE8384004B005
:1010BC00704730B403460C7830F8242092B222F4F6
:1010CC00EC4222F0700292B2C87803285AD8DFE8BA
:1010DC0000F04D550251002048F280052A4323F8B8
:1010EC0024200C7833F8242092B222F4E04222F02F
:1010FC00700222432A4323F824200A7B002A40F062
:10110C00B1804A78002A4ED0B3F850201A440C789B
:10111C0002EB0412CC8864086400A2F800440C783A
:10112C0033F8242012F0400F0CD033F8242092B264
:10113C0022F4E04222F0700242F4004242F0C0027B
:10114C0023F82420CA78012A1ED0097833F82120EC
:10115C0092B222F4E04222F0400282F0200242F4E9
:10116C00004242F0800223F8212060E042F4007239
:10117C000020B1E742F4C0620020ADE742F4806287
:10118C000020A9E70120A7E7097833F8212092B2C3
:10119C0022F4E04222F0400242F4004242F080028B
:1011AC0023F8212043E0B3F850201A440C7802EBCA
:1011BC000412CC8864086400A2F80844B3F85020E8
:1011CC001A440C7802EB04120C6994BBB2F80C4470
:1011DC00A4B224F4F844A4B2A2F80C44B2F80C441F
:1011EC0044F40044A2F80C440C7833F8242012F494
:1011FC00804F0CD033F8242092B222F4E04222F03B
:10120C00700242F4404242F0800223F82420097814
:10121C0033F8212092B222F4804222F0700282F440
:10122C00405242F4004242F0800223F8212030BCAC
:10123C0070473E2C09D8650814F0010F00D0013519
:10124C00AD02ADB2A2F80C54CEE7650914F01F0F35
:10125C0000D1013D6FEAC5646FEA5444A4B2A2F810
:10126C000C44C1E70C7833F8242092B222F4E0420B
:10127C0022F0700242F4014242F0800223F8242052
:10128C00B3F850201A440C7802EB04120C89640851
:10129C006400A2F80044B3F850201A440C7802EB16
:1012AC0004124C8964086400A2F808444A78002AA5
:1012BC004ED10C7833F8242012F4804F0CD033F834
:1012CC00242092B222F4E04222F0700242F4404216
:1012DC0042F0800223F824200C7833F8242012F0FA
:1012EC00400F0CD033F8242092B222F4E04222F0CA
:1012FC00700242F4004242F0C00223F824200C7821
:10130C0033F8242092B222F4E04222F0700242F42C
:10131C00004242F0C00223F824200D7833F8252037
:10132C0092B222F4804222F0700282F4405248F2CF
:10133C008004224323F82520097833F8212092B227
:10134C0022F4E04222F04002224323F821206EE7EF
:10135C000C7833F8242012F4804F0CD033F824206E
:10136C0092B222F4E04222F0700242F4404242F087
:10137C00800223F824200C7833F8242012F0400F3C
:10138C000CD033F8242092B222F4E04222F0700206
:10139C0042F4004242F0C00223F824200C7833F8C7
:1013AC00242092B222F4E04222F0700242F4404235
:1013BC0042F0800223F82420CA78012A1ED00C782F
:1013CC0033F8242092B222F4E04222F0400282F060
:1013DC00200242F4004242F0800223F824200978D3
:1013EC0033F8212092B222F4804222F0700242F4AF
:1013FC00004242F0800223F8212018E70C7833F8E1
:10140C00242092B222F4E04222F0400242F4004244
:10141C0042F0800223F82420E1E70B7B002B46D11D
:10142C004B7813B30A7830F8223013F0400F0CD0FD
:10143C0030F822309BB223F4E04323F0700343F4E2
:10144C00004343F0C00320F822300A7830F82230F1
:10145C009BB223F4E04323F0400343F4004343F0F6
:10146C00800320F82230002070470A7830F82230B0
:10147C0013F4804F0CD030F822309BB223F4E043AD
:10148C0023F0700343F4404343F0800320F82230F0
:10149C000A7830F822309BB223F4804323F0700397
:1014AC0043F4004343F0800320F82230DBE710B410
:1014BC004B78002B4ED10A7830F8223013F4804F41
:1014CC000CD030F822309BB223F4E04323F07003AD
:1014DC0043F4404343F0800320F822300A7830F87C
:1014EC00223013F0400F0CD030F822309BB223F492
:1014FC00E04323F0700343F4004343F0C00320F8AF
:10150C0022300A7830F822309BB223F4E04323F0E7
:10151C00700343F4004343F0C00320F822300B78EF
:10152C0030F8232092B222F4804222F0700248F26A
:10153C008004224320F823200A7830F822309BB212
:10154C0023F4E04323F04003234320F8223000200F
:10155C0010BC70470A7830F8223013F4804F0CD04E
:10156C0030F822309BB223F4E04323F0700343F4B1
:10157C00404343F0800320F822300A7830F82230C0
:10158C0013F0400F0CD030F822309BB223F4E04320
:10159C0023F0700343F4004343F0C00320F82230DF
:1015AC000A7830F822309BB223F4E04323F0700326
:1015BC0043F4404343F0800320F822300B7830F89A
:1015CC00232092B222F4E04222F0400248F280043E
:1015DC00224320F823200A7830F822309BB223F4DF
:1015EC00804323F07003234320F82230AFE74B787D
:1015FC008BB10A7830F822309BB223F4E04323F00D
:10160C00400383F0100343F4004343F0800320F8BD
:10161C002230002070470A7830F822309BB223F435
:10162C00804323F0700383F4805343F4004343F06E
:10163C00800320F82230ECE70B7B002B4BD14B784E
:10164C0033B30A7830F8223013F0400F0CD030F856
:10165C0022309BB223F4E04323F0700343F40043A5
:10166C0043F0C00320F82230CB78012B33D00A781A
:10167C0030F822309BB223F4E04323F0400383F094
:10168C00200343F4004343F0800320F8223022E08F
:10169C000A7830F8223013F4804F0CD030F8223016
:1016AC009BB223F4E04323F0700343F4404343F034
:1016BC00800320F822300A7830F822309BB223F4D1
:1016CC00804323F0700383F4405343F4004343F00E
:1016DC00800320F822300020704711B98023A0F835
:1016EC004C30002070470020704700207047B0F845
:1016FC00440070470020704701335B0800EB420246
:10170C0002F5806263B110B40C78487844EA002486
:10171C0022F8044B0231013B002BF5D110BC704771
:10172C00704770B54E78012E33D08A690B699A4296
:10173C0040F2FC80D21A8A610A7B002A40F01381A5
:10174C00B0F8502002440C7802EB0412002B40F04D
:10175C00F180B2F80C349BB223F4F8439BB2A2F89C
:10176C000C34B2F80C3443F40043A2F80C340A786D
:10177C0030F822309BB223F4804323F0700383F4BF
:10178C00405343F4004343F0800320F82230002000
:10179C0070BD8A690B699A4222D9D21A8A610C46A9
:1017AC0005460A7B02B30A7830F8221011F0400F7C
:1017BC0072D0002E40D1B0F85010014401EB02124F
:1017CC000BBBB2F80C1489B221F4F84189B2A2F81F
:1017DC000C14B2F80C1441F40041A2F80C1433E0D0
:1017EC0000238B611346DAE79EB23346CA884969F7
:1017FC00FFF782FFB5F850302B44227803EB02132D
:10180C00A3F8046437E03E2B09D8590813F0010FF4
:10181C0000D00131890289B2A2F80C1414E05909E4
:10182C0013F01F0F00D101396FEAC1616FEA51410A
:10183C0089B2A2F80C1407E0B0F85010014401EB87
:10184C00021299B2A2F80C1462899BB26169284603
:10185C00FFF752FF6378002B57D1227835F82230EE
:10186C009BB223F4E04323F0700343F4004343F0B2
:10187C00C00325F82230227835F822309BB223F4AD
:10188C00E04323F0400383F0300343F4004343F080
:10189C00800325F822307AE76EBBB0F85010014473
:1018AC0001EB021273B9B2F8041489B221F4F841B5
:1018BC0089B2A2F80414B2F8041441F40041A2F85D
:1018CC00041420E03E2B09D8590813F0010F00D066
:1018DC000131890289B2A2F8041414E0590913F0F9
:1018EC001F0F00D101396FEAC1616FEA514189B212
:1018FC00A2F8041407E0B0F85010014401EB0212F6
:10190C0099B2A2F8041422899FE7012BB3D1227853
:10191C0035F822309BB223F4E04323F0700343F4F8
:10192C00404343F0800325F82230A4E700238B6169
:10193C00134601E73E2B09D85C0813F0010F00D0C9
:10194C000134A402A4B2A2F80C4410E75C0913F011
:10195C001F0F00D1013C6FEAC4646FEA5444A4B277
:10196C00A2F80C4403E7A6B9B0F8502002440C7856
:10197C0002EB041233BBB2F80444A4B224F4F844CE
:10198C00A4B2A2F80444B2F8044444F40044A2F80B
:10199C0004444A78002A47D1B0F8502002440C780D
:1019AC0002EB04123BBBB2F80C349BB223F4F843A9
:1019BC009BB2A2F80C34B2F80C3443F40043A2F8F6
:1019CC000C34D4E63E2B09D85C0813F0010F00D080
:1019DC000134A402A4B2A2F80444DAE75C0913F0BF
:1019EC001F0F00D1013C6FEAC4646FEA5444A4B2E7
:1019FC00A2F80444CDE73E2B09D85C0813F0010F84
:101A0C0000D00134A402A4B2A2F80C44AFE65C09E5
:101A1C0013F01F0F00D1013C6FEAC4636FEA53430C
:101A2C009BB2A2F80C34A2E6012A7FF4A0AEB0F867
:101A3C00502002440C7802EB04129BB2A2F80C3436
:101A4C0095E630B45D0800EB420202F5806245B1C8
:101A5C0032F8044BA4B20C70240A4C700231013DD4
:101A6C00F5E713F0010F01D013880B7030BC7047F1
:101A7C0010B504460E4B18784FF47A73B3FBF0F3A1
:101A8C000C4A1068B0FBF3F000F02CFD68B90F2C79
:101A9C0001D901200AE0002221464FF0FF3000F06E
:101AAC00DFFC054B1C60002000E0012010BD00BFD6
:101ABC0060000020680000206400002008B5074A80
:101ACC00136843F010031360032000F0B7FC0020F0
:101ADC00FFF7CEFFFEF754FE002008BD00200240A9
:101AEC00034A1168034B1B780B441360704700BF0B
:101AFC00D412002060000020014B1868704700BF12
:101B0C00D412002038B50446FFF7F6FF0546B4F1B1
:101B1C00FF3F02D0044B1B781C44FFF7EDFF401B2A
:101B2C00A042FAD338BD00BF6000002082B0084B41
:101B3C001B68084AA2FB03235B0A00FB03F001901D
:101B4C0000BF019B5A1E0192002BF9D102B07047C5
:101B5C0068000020D34D6210002800F0F18170B5B0
:101B6C0082B00446036813F0010F2CD0AA4B5B68BB
:101B7C0003F00C03042B1DD0A74B5B6803F00C0384
:101B8C00082B12D06368B3F5803F41D0002B55D1A0
:101B9C0003F1804303F504331A6822F480321A608F
:101BAC001A6822F480221A6037E09B4B5B6813F4AE
:101BBC00803FE7D0984B1B6813F4003F03D0636859
:101BCC00002B00F0BF81236813F0020F75D0924BED
:101BDC005B6813F00C0F5FD08F4B5B6803F00C034A
:101BEC00082B54D02369002B00F089808B4B0122E9
:101BFC001A60FFF781FF0546874B1B6813F0020F35
:101C0C0074D1FFF779FF401B0228F5D903209EE120
:101C1C00814A136843F480331360636843B3FFF75E
:101C2C006BFF05467C4B1B6813F4003FCBD1FFF7D1
:101C3C0063FF401B6428F5D9032088E1B3F5A02F7E
:101C4C0009D0754B1A6822F480321A601A6822F493
:101C5C0080221A60E1E703F18043A3F53C331A6854
:101C6C0042F480221A601A6842F480321A60D4E777
:101C7C00FFF742FF0546684B1B6813F4003FA2D0E8
:101C8C00FFF73AFF401B6428F5D903205FE1624B54
:101C9C005B6813F4803FA5D15F4B1B6813F0020FF8
:101CAC0003D02369012B40F04F815B4A136823F06A
:101CBC00F803616943EAC1031360236813F0080F4A
:101CCC0032D0A369002B5BD0554B01221A60FFF771
:101CDC0013FF0546504B5B6A13F0020F21D1FFF73F
:101CEC000BFF401B0228F5D9032030E14A4A136848
:101CFC0023F0F803616943EAC1031360DDE7474B46
:101D0C0000221A60FFF7F8FE0546434B1B6813F0E0
:101D1C00020FD2D0FFF7F0FE401B0228F5D90320AA
:101D2C0015E10120FFF702FF236813F0040F00F008
:101D3C009780394BDB6913F0805F33D1364BDA690E
:101D4C0042F08052DA61DB6903F080530193019B0E
:101D5C000125344B1B6813F4807F25D0E368012BDD
:101D6C0036D0002B4CD103F1804303F504331A6AAF
:101D7C0022F001021A621A6A22F004021A622CE0A2
:101D8C00274B00221A60FFF7B7FE0546224B5B6A11
:101D9C0013F0020FC8D0FFF7AFFE401B0228F5D995
:101DAC000320D4E00025D4E71E4A136843F4807363
:101DBC001360FFF7A1FE06461A4B1B6813F4807FD5
:101DCC00CCD1FFF799FE801B6428F5D90320BEE027
:101DDC00114A136A43F001031362E36873B3FFF70C
:101DEC008BFE06460C4B1B6A13F0020F37D1FFF724
:101DFC0083FE801B41F288339842F3D90320A6E07E
:101E0C00052B11D0044B1A6A22F001021A621A6ACD
:101E1C0022F004021A62E0E7001002400000424285
:101E2C0080044242007000404D4B1A6A42F004029A
:101E3C001A621A6A42F001021A62CEE7FFF75CFEE0
:101E4C000646474B1B6A13F0020F08D0FFF754FEEF
:101E5C00801B41F288339842F3D9032077E0E5B92F
:101E6C00E369002B72D03E4A526802F00C02082A39
:101E7C0056D0022B17D03B4B00221A60FFF73CFECA
:101E8C000446374B1B6813F0007F47D0FFF734FE36
:101E9C00001B0228F5D9032059E0314AD36923F0FD
:101EAC008053D361DCE72F4B00221A60FFF724FE2E
:101EBC0005462B4B1B6813F0007F06D0FFF71CFE6A
:101ECC00401B0228F5D9032041E0236AB3F5803F7B
:101EDC001AD023494B6823F47413226A606A0243B4
:101EEC0013434B601F4B01221A60FFF705FE04469B
:101EFC001B4B1B6813F0007F0ED1FFF7FDFD001B81
:101F0C000228F5D9032022E0154A536823F4003344
:101F1C00A1680B435360DCE7002018E0002016E0BA
:101F2C00012B16D00E4B5B6803F48031226A914270
:101F3C0011D103F47013626A93420ED1002006E0B3
:101F4C0001207047012002E0012000E0002002B0D7
:101F5C0070BD0120FBE70120F9E70120F7E700BF86
:101F6C00001002406000424210B487B0164C94E856
:101F7C000F000DF1180C0CE90F00238AADF804309A
:101F8C00124B5B6803F00C02082A03D0104807B010
:101F9C0010BC7047C3F38342624412F8102C13F444
:101FAC00803F0CD0094B5B68C3F34043634413F888
:101FBC00143C074800FB02F0B0FBF3F0E7E70548E0
:101FCC0000FB02F0E3E700BF4433000800100240BE
:101FDC0000127A0000093D00002800F0A08070B5C6
:101FEC000446534B1B6803F007038B420BD2504A39
:101FFC00136823F007030B431360136803F0070304
:10200C008B4240F08E80236813F0020F17D013F030
:10201C00040F04D0474A536843F4E06353602368C9
:10202C0013F0080F04D0434A536843F460535360D1
:10203C00404A536823F0F003A068034353600D46F5
:10204C00236813F0010F31D06368012B20D0022BD1
:10205C0025D0384A126812F0020F64D035494A680C
:10206C0022F0030213434B60FFF746FD0646314B4B
:10207C005B6803F00C036268B3EB820F16D0FFF7BA
:10208C003BFD801B41F288339842F0D9032045E098
:10209C00284A126812F4003FE0D101203EE0254AA4
:1020AC00126812F0007FD9D1012037E0204B1B6859
:1020BC0003F00703AB420AD91D4A136823F0070348
:1020CC002B431360136803F00703AB422DD1236835
:1020DC0013F0040F06D0174A536823F4E063E16849
:1020EC000B435360236813F0080F07D0114A536851
:1020FC0023F46053216943EAC1035360FFF734FFB3
:10210C000C4B5B68C3F303130B4AD35CD8400B4BEB
:10211C0018600B4B1868FFF7ABFC002070BD01205A
:10212C0070470120FAE70120F8E70120F6E700BF2D
:10213C000020024000100240B0330008680000206C
:10214C006400002070B582B00446036813F0010FE0
:10215C0034D03E4BDB6913F0805F48D13B4BDA69DE
:10216C0042F08052DA61DB6903F080530193019BEA
:10217C000125374B1B6813F4807F3AD0334B1B6A15
:10218C0013F4407311D0626802F440729A420CD07E
:10219C002E4A136A23F440702E4901260E60002645
:1021AC000E60106213F0010F37D1284A136A23F422
:1021BC00407361680B431362002D3FD1236813F009
:1021CC00020F06D0214A536823F44043A1680B4305
:1021DC005360236813F0100F35D01C4A536823F456
:1021EC008003E1680B435360002002B070BD0025F2
:1021FC00BFE7174A136843F480731360FFF77CFC46
:10220C000646134B1B6813F4807FB7D1FFF774FCA1
:10221C00801B6428F5D90320E7E7FFF76DFC064621
:10222C000A4B1B6A13F0020FBFD1FFF765FC801B32
:10223C0041F288339842F3D90320D6E7D36923F0CF
:10224C008053D361BAE70020CFE700BF00100240F3
:10225C000070004040044242F0B482B00026354683
:10226C00A0E0002A58D0012A10D1CE680EE06A4FA7
:10227C00BA4251D048D9694FBA424DD007F5803790
:10228C00BA4249D0A7F58017BA4245D0FF2B57D890
:10229C008446FF2B57D8AC00DCF800200F27A74052
:1022AC0022EA070206FA04F42243CCF800204A681A
:1022BC0012F0805F75D05A4A946944F0010494611D
:1022CC00926902F001020192019AAC08A71C554ACE
:1022DC0052F8272005F00307BF004FF00F0C0CFA43
:1022EC0007FC22EA0C0C504A904232D002F5806274
:1022FC00904271D002F5806290426FD002F58062FC
:10230C00904224D0042225E0A7F58017BA4203D0CE
:10231C0007F58037BA42B9D18A687AB1012A08D058
:10232C0044610826B2E7CE680836AFE7CE680C36B3
:10233C00ACE704610826A9E70026A7E70426A5E771
:10234C0000F1040CA5E7A5F10804A400A4E70322FE
:10235C0000E00022BA4042EA0C020234314F47F846
:10236C0024204A6812F4803F3AD0304C22681A4339
:10237C0022604A6812F4003F38D02C4C62681A4331
:10238C0062604A6812F4801F36D0284CA2681A4347
:10239C00A2604A6812F4001F34D0244CE268134344
:1023AC00E36001350B6833FA05F231D00124AC40FF
:1023BC0023409C42F5D14A68122AB7D03FF657AF5A
:1023CC00022AB0D07FF64DAF032AB5D0112A7FF484
:1023DC005DAFCE68043659E70122BBE70222B9E7AC
:1023EC00124C226822EA03022260C2E70F4C626898
:1023FC0022EA03026260C4E70C4CA26822EA0302E0
:10240C00A260C6E7094CE26822EA0303E360C8E76E
:10241C0002B0F0BC704700BF00002110000031106A
:10242C00001002400000014000080140000401407F
:10243C000AB101617047090401617047074AD3680A
:10244C0023F4E0631B041B0C000200F4E06018434F
:10245C0040F0BF6040F40030D060704700ED00E009
:10246C0030B4174BDB68C3F30223C3F10704042C0D
:10247C0028BF04241D1D062D01D9033B00E00023B9
:10248C004FF0FF3505FA04F421EA0401994005FAEE
:10249C0003F322EA03031943002809DB0901C9B23B
:1024AC0000F1604000F5614080F8001330BC7047CB
:1024BC0000F00F000901C9B2024B1954F6E700BF36
:1024CC0000ED00E014ED00E0002807DB00F01F0237
:1024DC00400901239340024A42F82030704700BF64
:1024EC0000E100E00138B0F1807F0AD2064B586061
:1024FC00064AF02182F823100020986007221A6007
:10250C0070470120704700BF10E000E000ED00E0D4
:10251C000F4B1A6842F001021A6059680D4A0A40C2
:10252C005A601A6822F0847222F480321A601A6897
:10253C0022F480221A605A6822F4FE025A604FF488
:10254C001F029A60044B4FF000629A60704700BF04
:10255C00001002400000FFF800ED00E098B108B553
:10256C000346D0F8B40210B10020C3F8B40209B18C
:10257C00C3F8B0121846012380F89C320270FDF7A4
:10258C0075FF002008BD0220704719B1C0F8B412C5
:10259C00002070470220704708B5FDF7A9FF002006
:1025AC0008BD08B5D0F8B43233B11B68984708B9E8
:1025BC00002008BD0220FCE70220FAE708B5D0F89D
:1025CC00B4325B689847002008BD38B5044600F566
:1025DC002A75284600F03BF90123C4F89432B4F86C
:1025EC00AE32C4F8983294F8A81201F01F03012BF4
:1025FC000FD05AB23AB1022B10D001F08001204614
:10260C00FDF791FF03E02946204600F0CFFA0020A9
:10261C0038BD2946204600F0FDFAF8E72946204649
:10262C0000F028FBF3E738B50446A9BB1046D4F8F4
:10263C009432032B03D0052B25D0002038E0D4F89E
:10264C006031D4F8642193420DD99B1AC4F86031DF
:10265C009A4206D99AB20146204600F052FC00205C
:10266C0026E092B2F7E7D4F8B4321B691BB194F8A8
:10267C009C22032A04D0204600F04BFC002017E0DB
:10268C0020469847F7E70025C4F89452294620467F
:10269C00FDF749FF28460BE00A46D0F8B4329B6997
:1026AC003BB190F89C12032905D1114698470020A4
:1026BC0038BD0220FCE70220FAE710B504460029D9
:1026CC0054D11046D4F89432022B0CD0042B00D0E9
:1026DC001BB980212046FDF726FF94F8A032012B70
:1026EC0040D0002010BD236A626A93421BD8E16976
:1026FC00B1FBF2F302FB13132BB98A4203D8D4F8C3
:10270C00983299421DD3D4F8B432DB681BB194F8DB
:10271C009C22032A23D080212046FDF704FF20466B
:10272C0000F002FCD9E79A1A226292B201462046C6
:10273C0000F0D0FB00231A4619462046FDF726FF71
:10274C00CBE700221146204600F0C4FB0021C4F860
:10275C0098120B460A462046FDF718FFBDE72046A7
:10276C009847D8E7002084F8A002BBE70A46D0F8C7
:10277C00B4325B693BB190F89C12032905D1114628
:10278C0098470020AEE70220ACE70220AAE770B51C
:10279C000446402300221146FDF7B2FE0125C4F881
:1027AC0058514026C4F864613346002280212046EB
:1027BC00FDF7A6FEA561666284F89C520023C4F85E
:1027CC0094326360C4F8A432D4F8B8322BB1D4F884
:1027DC00B4325B68002120469847002070BD01741C
:1027EC000020704790F89C3280F89D32042380F8CA
:1027FC009C320020704790F89C32042B01D00020B2
:10280C00704790F89D3280F89C32F8E708B590F844
:10281C009C32032B01D0002008BDD0F8B432DB6908
:10282C00002BF8D09847F6E7002302781AB1013351
:10283C00DBB20130F9E71846704708B54B88012B1D
:10284C0000D008BDC0F8A43200F063FBF9E70B78A8
:10285C0003704B7843708B78CA7803EB0223438068
:10286C000B794A7903EB022383808B79CA7903EBCA
:10287C000223C380704710B504468021FDF753FE38
:10288C0000212046FDF74FFE10BD30B583B0054644
:10289C000C460023ADF806304A88130A013B062B80
:1028AC0000F2A480DFE803F004182CA2A2869300A7
:1028BC00D0F8B0321B680DF10601007C9847BDF8CA
:1028CC0006201AB1E388002B40F09480E388002B9B
:1028DC0000F09A8003B030BD037C43B9D0F8B43219
:1028EC009B6A0DF10600984702234370E7E7D0F886
:1028FC00B432DB6A0DF10600984702234370DEE721
:10290C00D2B2052A52D8DFE802F003101D2A374450
:10291C00D0F8B0325B6823B10DF10601007C98470A
:10292C00CDE72146FFF7A7FFD4E7D0F8B0329B687C
:10293C0023B10DF10601007C9847C0E72146FFF753
:10294C009AFFC7E7D0F8B032DB6823B10DF106016E
:10295C00007C9847B3E72146FFF78DFFBAE7D0F824
:10296C00B0321B6923B10DF10601007C9847A6E734
:10297C002146FFF780FFADE7D0F8B0325B6923B199
:10298C000DF10601007C984799E72146FFF773FF8C
:10299C00A0E7D0F8B0329B6923B10DF10601007CA1
:1029AC0098478CE72146FFF766FF93E72146FFF730
:1029BC0062FF8FE7037C33B9D0F8B4325B6B0DF157
:1029CC00060098477BE72146FFF755FF82E7037C1B
:1029DC0043B9D0F8B4321B6B0DF1060098470723AE
:1029EC0043706CE72146FFF746FF73E72146FFF77C
:1029FC0042FF6FE79A4228BF1A46ADF806200146FF
:102A0C00284600F05AFA61E7284600F082FA61E79E
:102A1C0038B504468B88F3B9CB88E3B94B887F2B48
:102A2C0019D803F07F0590F89C32032B0CD080F85A
:102A3C009E522946FDF79AFD204600F06AFA35B100
:102A4C00022384F89C3209E0FFF715FF06E001230E
:102A5C0084F89C3202E02046FFF70DFF38BD0000E1
:102A6C0038B504460D468978284B197001290ED8C3
:102A7C0090F89C32022B0ED0032B21D02946FFF765
:102A8C00FAFE224B19782046FFF798FD02E0294602
:102A9C00FFF7F1FE38BD81B14160032380F89C3211
:102AAC00FFF77FFD022803D0204600F032FAF1E751
:102ABC0029462046FFF7DFFEECE700F02AFAE9E7AB
:102ACC0089B1436899421DD0D9B2FFF777FD0F4BFE
:102ADC00197861602046FFF764FD02280DD020466E
:102AEC0000F017FAD6E7022380F89C324160FFF71A
:102AFC0065FD204600F00DFACCE729462046FFF78D
:102B0C00BAFEC7E700F005FAC4E700BFB80300201F
:102B1C0008B5CB88012B0CD190F89C325AB29AB1E3
:102B2C00022B09D9032B0FD10122011D00F0C5F98D
:102B3C0001E0FFF7A0FE08BD0146002341F8083F65
:102B4C00012200F0BAF9F6E7FFF795FEF3E708B5B6
:102B5C0090F89C32013B022B12D8CB88022B0CD163
:102B6C000123C360D0F8A4320BB10323C36002224B
:102B7C0000F10C0100F0A1F908BDFFF77CFEFBE7AA
:102B8C00FFF779FEF8E708B590F89C32013B022B71
:102B9C0009D84B88012B00D008BD0023C0F8A43203
:102BAC0000F0B7F9F8E7FFF766FEF5E708B50B7824
:102BBC0003F06003202B05D0402B03D043B1FFF76B
:102BCC005AFE03E0D0F8B4329B689847002008BD49
:102BDC004B78092B1BD8DFE803F011171A141A08CD
:102BEC00051A0E0BFFF751FEF0E7FFF711FFEDE7AB
:102BFC00FFF736FFEAE7FFF78BFFE7E7FFF7A7FFE3
:102C0C00E4E7FFF71AFEE1E7FFF7BDFFDEE7FFF7AA
:102C1C0032FEDBE738B505460C460B7803F0600353
:102C2C00202B06D0402B04D01BB1FFF724FE002034
:102C3C0038BD95F89C32013B022B16D82379012B19
:102C4C000ED8D5F8B4329B68214628469847E388BD
:102C5C00002BECD10028EAD1284600F05AF9E6E71F
:102C6C0021462846FFF707FEE1E721462846FFF7F5
:102C7C0002FEDCE738B504468A880B7803F0600363
:102C8C00202B08D0D0B2402B05D05BB12046FFF7EB
:102C9C00F2FD002005E0D4F8B4329B68204698473A
:102CAC00002038BD202B13D04B78012B39D05DB2CE
:102CBC00002D64D0032B40F0DE8094F89C32022B64
:102CCC000CD0032B1CD02046FFF7D5FD0020E8E7E5
:102CDC00D4F8B4329B6820469847E2E708B18028C4
:102CEC0004D12046FFF7C7FD0020DAE70146204655
:102CFC00FDF719FC80212046FDF715FC0020D0E7DC
:102D0C004B8823B918B1802801D0CB8823B1204639
:102D1C0000F0FFF80020C4E701462046FDF703FC55
:102D2C00F5E794F89C32022B06D0032B16D02046E4
:102D3C00FFF7A1FD0020B4E708B1802804D120469C
:102D4C00FFF799FD0020ACE701462046FDF7EBFBB1
:102D5C0080212046FDF7E7FB0020A2E74B88002BE3
:102D6C0040F08E8010F07F0F04D1204600F0D1F897
:102D7C00002096E701462046FDF7DDFBF5E794F8C9
:102D8C009C32022B06D0032B2AD02046FFF773FD72
:102D9C00002086E708B1802813D112F0800F15D1DE
:102DAC0000F07F0000EB8000830003F5A871214444
:102DBC00043100250D600222204600F07EF82846E2
:102DCC006FE72046FFF757FD00206AE700F07F0011
:102DDC0000EB8000830003F1100121440431E8E78B
:102DEC0052B2002A1FDB00F00F0303EB83039D009C
:102DFC002544D5F8583123B3002A27DB00F07F0295
:102E0C0002EB8202930003F5A8752544043508B142
:102E1C00802825D100232B6002222946204600F071
:102E2C004CF800203DE700F00F0303EB83039D00FB
:102E3C002544AB69002BDFD12046FFF71CFD002099
:102E4C002FE72046FFF717FD00202AE700F07F024E
:102E5C0002EB8202930003F1100525440435D6E7FA
:102E6C0001462046FDF76FFB10B101232B60D3E721
:102E7C0000232B60D0E72046FFF7FDFC002010E775
:102E8C0000200EE7C0B170B50D4616460446FFF79C
:102E9C00CBFC013040003080287003236B70022380
:102EAC00217841B101345A1CD2B2E9540233DBB25D
:102EBC000021A954F4E770BD704710B513460222E7
:102ECC00C0F89422C36103620A460021FDF756FB49
:102EDC00002010BD08B513460A460021FDF74EFB35
:102EEC00002008BD10B513460322C0F89422C0F888
:102EFC005C31C0F860310A460021FDF747FB002029
:102F0C0010BD08B513460A460021FDF73FFB002013
:102F1C0008BD08B50423C0F8943200231A4619469C
:102F2C00FDF72CFB002008BD08B50523C0F8943232
:102F3C0000231A461946FDF729FB002008BD10B5E1
:102F4C00D0F8B842D0F8BC325BB194F80002FF283C
:102F5C0007D09B6894F8012221469847FF2384F8F8
:102F6C000032002010BD000043230380004870474E
:102F7C00A40000204323038000487047E800002091
:102F8C004323038000487047380100200A23038044
:102F9C00004870472C01002038B50446D0F8B852D0
:102FAC00FDF7FCFAC5F80C02D4F8B8324BB1D4F8E2
:102FBC00BC32DB6805F50371D5F804029847002094
:102FCC0038BD0220FCE738B5D0F8B822D0F8C05292
:102FDC00E2B101EB8104A3000344DB693BB105EBD7
:102FEC004115AD6BB3FBF5F405FB143323B1002392
:102FFC00C2F81432002038BD01EB81029300034467
:10300C000022DA611346FDF7B9FAF3E70220F2E782
:10301C0070B582B005460C46D0F8B86200238DF826
:10302C000730ADF804300B7813F0600227D0202A5B
:10303C0056D1CA88DAB113F0800F0CD0D0F8BC325C
:10304C009B68314660789847E28831462846FFF7FE
:10305C0034FF002047E04B7886F800328B7986F8F5
:10306C000132CA883146FFF73DFF00203BE0D0F823
:10307C00BC329B68002248789847002033E04B789C
:10308C000A2B14D00B2B21D01BB1FFF7F4FB022021
:10309C0029E090F89C32032B03D0FFF7ECFB0220C5
:1030AC0021E0022201A9FFF708FF00201BE090F8A5
:1030BC009C32032B03D0FFF7DEFB022013E001222E
:1030CC000DF10701FFF7F9FE00200CE090F89C329F
:1030DC00032B01D1002006E0FFF7CDFB022002E01C
:1030EC00FFF7C9FB022002B070BD38B50446812140
:1030FC00FDF711FA0025E56201212046FDF70BFAD8
:10310C00C4F86C5182212046FDF705FA2564D4F8E9
:10311C00B8324BB1D4F8BC325B689847D4F8B802DB
:10312C00FDF746FAC4F8B852002038BD38B504464D
:10313C00037CABBB4FF4007302228121FDF7E0F955
:10314C000125E5624FF40073022229462046FDF763
:10315C00D7F9C4F86C510823032282212046FDF7CD
:10316C00CFF9012323644FF40770FDF71DFA0546D0
:10317C00C4F8B80268B3D4F8BC321B689847002373
:10318C00C5F81432C5F81832237CCBB94FF4007350
:10319C00D5F8042201212046FDF7F8F9002038BDAE
:1031AC00402302228121FDF7ABF90125E562402382
:1031BC00022229462046FDF7A3F9C4F86C51CAE750
:1031CC004023D5F8042201212046FDF7DFF9002029
:1031DC00E5E70120E3E719B1C0F8BC120020704705
:1031EC0002207047D0F8B832C3F80812C3F8102286
:1031FC0000207047D0F8B832C3F804120020704792
:10320C00D0F8B822A2B108B5D2F814320BB1012013
:10321C0008BD0123C2F81432D2F810320363B2F89D
:10322C001032D2F808228121FDF7A8F90020EFE72F
:10323C0002207047D0F8B82292B108B5037C43B98C
:10324C004FF40073D2F804220121FDF79FF90020FE
:10325C0008BD4023D2F804220121FDF797F9F6E7C7
:10326C0002207047002103E00B4B5B5843500431A4
:10327C000A480B4B42189A42F6D30A4A02E0002342
:10328C0042F8043B084B9A42F9D3FFF741F900F09E
:10329C000FF8FDF729F87047C8330008000000202C
:1032AC007C0100207C010020D8120020FEE70000E9
:1032BC0070B500260C4D0D4C641BA410A64209D110
:1032CC0000F02EF800260A4D0A4C641BA410A642EE
:1032DC0005D170BD55F8043B98470136EEE755F81B
:1032EC00043B98470136F2E7C0330008C0330008AE
:1032FC00C0330008C4330008034610B5013932B19D
:10330C0011F8014F013A03F8014B002CF7D10021C1
:10331C001A44934200D110BD03F8011BF9E70000D9
:10332C00F8B500BFF8BC08BC9E467047F8B500BFA6
:08333C00F8BC08BC9E46704776
:1033440002030405060708090A0B0C0D0E0F1010E2
:1033540001020000555342205472616E736D69740A
:103364000D0A000043444320436F6E666967000002
:1033740043444320496E74657266616365000000CE
:1033840053544D6963726F656C656374726F6E69D3
:103394006373000053544D3332205669727475615F
:1033A4006C20436F6D506F727400000000000000C9
:0C33B400000000000102030406070809E5
:0433C000850100087B
:0433C4005D0100089F
:1033C800C1050008CD0500087D060008590600085B
:1033D8004506000899060008BD060008120100020B
:1033E800020200408304405700020102030100006A
:1033F800040309041A030000000000000000000094
:1034080000000000000000000000000000000000B4
:1034180011070008E1060008E5060008E9060008AB
:1034280001000000100000000024F40039310008F9
:10343800F73000081D300008000000004B2F00087E
:10344800D32F0008A52F000800000000000000008E
:1034580000000000812F0008752F00088D2F00083C
:10346800992F000809024300020100C03209040034
:1034780000010202010005240010010524010001D9
:10348800042402020524060001070582030800102F
:1034980009040100020A00000007050102400000BB
:1034A800070581024000000009024300020100C034
:1034B8003209040000010202010005240010010580
:1034C80024010001042402020524060001070582E4
:1034D8000308001009040100020A000000070501A2
:1034E8000200020007058102000200000A0600022D
:1034F800000000400100000009074300020104C069
:10350800320904000001020201000524001001052F
:103518002401000104240202052406000107058293
:103528000308001009040100020A00000007050151
:0C35380002400000070581024000000076
:04000005080032714C
:00000001FF
